:020000040800F2
:10000000480E002099010008232800085723000803
:1000100021280008150D00084D31000800000000DF
:10002000000000000000000000000000BD2D0008DE
:10003000170D000800000000912C0008352E000864
:10004000B3010008B3010008B3010008B3010008C0
:10005000B3010008B3010008B3010008B3010008B0
:10006000B3010008B3010008B3010008B3010008A0
:10007000B3010008B3010008B3010008B301000890
:10008000B3010008B3010008B3010008B301000880
:10009000B3010008B3010008B3010008B301000870
:1000A000B3010008B3010008B3010008B301000860
:1000B000B3010008B3010008B3010008B301000850
:1000C000B3010008B3010008B3010008952C000833
:1000D000B3010008B30100083531000841310008C0
:1000E000B3010008B3010008B301000800F002F8F2
:1000F00000F042F80AA090E8000C82448344AAF180
:100100000107DA4501D100F037F8AFF2090EBAE87D
:100110000F0013F0010F18BFFB1A43F0010318473B
:10012000884E0000A84E0000103A24BF78C878C15D
:10013000FAD8520724BF30C830C144BF04680C60ED
:10014000704700000023002400250026103A28BF35
:1001500078C1FBD8520728BF30C148BF0B60704739
:10016000642900F07580782900F0AE800020704787
:100170001FB51FBD10B510BD00F0E5FA1146FFF721
:10018000F7FF02F0FBFF00F003FB03B4FFF7F2FF01
:1001900003BC00F00BFB00000948804709480047FA
:1001A000FEE7FEE7FEE7FEE7FEE7FEE7FEE7FEE727
:1001B000FEE7FEE704480549054A064B7047000084
:1001C000B12E0008ED00000848080020480E00206D
:1001D000480A0020480A00200FB41CB5074B06AAA5
:1001E0007B4469460090059800F063FA0020694658
:1001F00000F072FA1CBC5DF814FB0000F50400006E
:1002000070B5044685690068C10601D5302600E056
:100210002026C00707D070BDD4E9012130469047A1
:10022000206A401C20626D1EF6D570BD70B5044674
:1002300085690078C00707D170BDD4E9012120206D
:100240009047206A401C20626D1EF6D570BD0000EC
:100250002DE9F0410646002410687529314616A59F
:1002600010D0AFF30080002802DA404213A507E067
:1002700031688A0701D512A502E0490704D511A506
:10028000012401E0AFF3008000210A2206F12407D7
:1002900009E0B0FBF2FCB0FBF2F302FB1C003030D3
:1002A00078541846491C0028F3D123462A46304684
:1002B000BDE8F04100F09FB9000000002D000000F3
:1002C0002B0000002000000070B504460D462146BA
:1002D0001068AFF300802188090502D50F4A7A44DF
:1002E00002E00E4A7A440E32002104F1240305E0B4
:1002F00000F00F060009965D5E54491C0028F7D1F6
:1003000020780023000704D5702D02D009B1022304
:1003100011322046BDE8704000F06DB98C4C0000F1
:100320002DE9F05F894604464FF0000ADFF824B15A
:10033000FB44C0F820A02046E168884700287DD013
:10034000252806D0D4E901219047206A401C20626C
:10035000F1E700255F462046E168884720280646E9
:1003600007DB312E05D2B81910F8200C08B105436F
:10037000F1E7A80701D525F00405C4F81CA0002763
:10038000C4F818A02A2E09D0304602F0F0FE38B387
:1003900004EB8708303EC8F8186019E059F8041BD0
:1003A000204604EB87029161E1688847012F0646E9
:1003B00018D1E069002820DA25F020051DE0D8F8E2
:1003C000180000EB800006EB40003038C8F8180039
:1003D0002046E1688847064602F0C9FE0028EED1B3
:1003E000012F0AD02E2E08D12046E16888477F1CB5
:1003F0000646022F45F02005C4DBA069002803DA79
:10040000404245F00105A061E80701D025F0100544
:10041000A6B1A6F14100192802D8203645F400659E
:100420004A463146204625604D46FFF799FE60B1A9
:10043000012807D0ED1D25F0070000E007E000F1DE
:10044000080978E705F1040975E730467AE7206A7C
:10045000BDE8F09F624C000030B505460B462A46C9
:1004600013F8014B12F8010B08B1A042F8D01CB1EF
:10047000002802D06D1CF1E7284630BD40EA010398
:1004800010B59B070FD1042A0DD310C808C9121F3D
:100490009C42F8D020BA19BA884201D9012010BD77
:1004A0004FF0FF3010BD1AB1D30703D0521C07E044
:1004B000002010BD10F8013B11F8014B1B1B07D1A8
:1004C00010F8013B11F8014B1B1B01D1921EF1D119
:1004D000184610BD032A40F2308010F0030C00F0E3
:1004E000158011F8013BBCF1020F624498BF11F86E
:1004F00001CB00F8013B38BF11F8013BA2F1040227
:1005000098BF00F801CB38BF00F8013B11F003039E
:1005100000F0E780083AC0F0088051F8043B083A40
:1005200051F804CBA0E80810F5E7121D5CBF51F8A4
:10053000043B40F8043BAFF30080D20724BF11F81E
:10054000013B11F801CB48BF11F8012B24BF00F883
:10055000013B00F801CB48BF00F8012B70474FF07A
:1005600000020429C0F0128010F0030C00F01B8080
:10057000CCF1040CBCF1020F18BF00F8012BA8BF8E
:1005800020F8022BA1EB0C0100F00DB85FEAC17C52
:1005900024BF00F8012B00F8012B48BF00F8012B05
:1005A00070474FF0000200B5134694469646203936
:1005B00022BFA0E80C50A0E80C50B1F12001BFF41C
:1005C000F7AF090728BFA0E80C5048BF0CC05DF882
:1005D00004EB890028BF40F8042B08BF704748BFD0
:1005E00020F8022B11F0804F18BF00F8012B704744
:1005F0007047704770472DE9F0470D46994692467F
:10060000044600F124080168880604D5E06921F059
:100610001001216000E00120A84201DD471B00E03D
:100620000027A1697A1902EB0900081AA061207855
:10063000C00602D42046FFF7E3FD002608E0D4E917
:1006400001211AF806009047206A401C761C20629F
:100650004E45F4DB2078C0060AD52046FFF7D0FDD2
:1006600006E0D4E9012130209047206A401C206236
:10067000381EA7F10107F4DC07E0D4E9012118F8DE
:1006800005009047206A401C2062281EA5F1010544
:10069000F3DC2046FFF7CAFD2078000602D50220D1
:1006A000BDE8F0870120FBE701694A1C0261087878
:1006B000704700B58FB0CDE90131002105910549A2
:1006C0007944CDE9031011466846FFF729FE0FB0C3
:1006D00000BD0000E5FFFFFF0A6802F8010B0A6099
:1006E000704710B5203AC0F00B80B1E81850203A9E
:1006F000A0E81850B1E81850A0E81850BFF4F5AFC2
:100700005FEA027C24BFB1E81850A0E8185044BF4B
:1007100018C918C0BDE810405FEA827C24BF51F8B8
:10072000043B40F8043B08BF7047D20728BF31F8AC
:10073000023B48BF11F8012B28BF20F8023B48BFFD
:1007400000F8012B7047754600F02CF8AE46050006
:100750006946534620F00700854618B020B5FFF7DC
:1007600029FDBDE820404FF000064FF000074FF094
:1007700000084FF0000B21F00701AC46ACE8C009BF
:10078000ACE8C009ACE8C009ACE8C0098D467047C8
:1007900010B50446AFF300802046BDE81040FFF7D7
:1007A000F4BC000000487047E4070020014918200D
:1007B000ABBEFEE7260002007047000070B504469D
:1007C00000688168C943C90717D1816821F0010118
:1007D000816000F053FD05460AE000BF00F04EFDC9
:1007E000401B022804D920688068C043C00706D097
:1007F00020688068C043C007F0D0002070BDA06AA8
:1008000040F01000A062E06A40F00100E0620120C8
:1008100070BD00B58BB001AB8DF824000AA8009024
:10082000012209A9022000F0D3F838B9BDF8280048
:100830000B2803D39DF80D000BB000BDFF20FBE794
:1008400000B58BB009A80022009001AB1146012031
:1008500000F0BEF838B9BDF824000B2803D39DF88A
:100860000D000BB000BDFF20FBE70000F0B58BB022
:10087000064600244FF49675304600F003F9002830
:1008800020D0284600F0F2FB641CE4B2032CF3D322
:10089000002401AF002202AB11464020009700F077
:1008A00097F888B9BDF804000F280DD3DDF81200C1
:1008B0009DF8151000BA20F0FF000843074930608A
:1008C000486000200BB0F0BD284600F0CFFB641C50
:1008D000E4B2022CDED3FF20F4E700001C0000206D
:1008E00010B501F079FF4FF47A7000F0BFFB64207F
:1008F00000F0BCFB4FF4FA74204600F0B7FB204632
:10090000BDE8104000F0B2BB2DE9F04789468246B1
:1009100000F0B4FC154C002605462680DFF8508018
:1009200041F288371AE02088A8B12088092812D31C
:10093000B8F80700218840BA093081420BD32288D9
:100940000B495046FFF7C6FD2188A9F80010268004
:100950000020BDE8F087012000F088FB00F08EFC4D
:10096000401BB842DFD32680FF20F2E71C000020A6
:10097000E406002030B58DB01C46109D8DF80400B3
:10098000080A8DF805008DF80610100A8DF807008A
:100990000BA88DF80820009003AB052201A90420C4
:1009A00000F016F890B9BDF82C000F280ED39DF872
:1009B000150038B9BDF8160040BA2080BDF81800FF
:1009C00040BA28809DF815000DB030BDFF20FBE730
:1009D000F0B5C1B0140002464FF0EF00469F8DF80D
:1009E00000001E4625484FF001038DF80130406895
:1009F0006D464FEA106C8DF802C04FEA104C8DF82E
:100A000003C04FEA102C8DF804C08DF8050004F1E6
:100A100003008DF806304FEA10238DF808008DF89A
:100A200007308DF809204FF00A0006D005F10A00C2
:100A30002246FFF74FFD0A34A0B20022062104E04F
:100A40006B5C491C1A4492B289B28142F8D3110AF4
:100A50002954401C80B241F288332A54401C82B28F
:100A60006946074801F026FC36B12FB139463046B9
:100A7000FFF74AFF41B0F0BD0020FBE71C0000205B
:100A80001C0100202DE9FE43814600F0F7FB0646DD
:100A9000EF20284C8DF8000001218DF801106068CE
:100AA000020E8DF80220020C8DF80320020A8DF848
:100AB00004208DF8050000258DF806108DF80750EC
:100AC0008DF80850258041F288373B460922694657
:100AD000194801F0EFFBC82000F0C8FADFF85C808D
:100AE00011E0208809280BD398F800104046EF2920
:100AF00006D14178012903D198F8060007280BD0C8
:100B0000012000F0B3FA00F0B9FB801BB842E8D333
:100B10002580FF20BDE8FE83D8F8020098F8051074
:100B200000BA20F0FF000843C9F80000606025808B
:100B30000020EFE71C0000201C010020E40600203C
:100B400038B50C460546FFF77BFE00280CD1012086
:100B5000FFF75FFE002807D12B464FF49672002165
:100B600001200094FFF706FF38BD0000F0B54249B0
:100B700089B00020C87000F081FB06464FF4FA658A
:100B8000012442F210770BE007A9262002F014F8A6
:100B900018B906A801F0D0FFA8B1642000F066FAE9
:100BA00000F06CFB801BB842EED301F03BFE00214D
:100BB000082332A20846009401F074FF082331A2F2
:100BC000194600943CE09DF81B109DF81A00CDE9F1
:100BD00000019DF819309DF818202FA102A8FFF7F9
:100BE000FBFA06A801F016FC98B101F01BFE0021EB
:100BF00008232FA20846009401F054FF082302AAFC
:100C000019460020009401F04DFF08232CA2009407
:100C100015E006A802F0D4F801F004FE0021082334
:100C200023A20846009401F03DFF082302AA1946BA
:100C30000020009401F036FF082326A20094102122
:100C4000002001F02FFF01F087FE284600F00EFA89
:100C500001F0E8FD0021082323A20846009401F0DA
:100C600021FF082325A219460020009401F01AFF55
:100C700001F072FE09B0F0BD0000002054696D65FE
:100C80006F7574004E6F20636172642064657465D3
:100C9000637465640000000049443A2025303258EE
:100CA0002025303258202530325820253032580047
:100CB0004361726420446574656374656400000078
:100CC000416C7265616479205265676973746572FD
:100CD00065640000536176656420537563636573D2
:100CE0007366756C6C7900005761697420666F7269
:100CF000204E4643206361726400000057616974AE
:100D000020666F722066696E6765727072696E74B4
:100D100000000000FEE7704772B6FEE7F8B5002459
:100D2000009490F824202546012A12D0012280F850
:100D300024204A681F23072A0DD20668776B521EAB
:100D400002EB820293409F430B6893401F437763FB
:100D500019E00220F8BD06680D2A0AD2376BD21FAF
:100D600002EB820293409F430B6893401F4337631B
:100D700009E0F76A0D3A02EB820293409F430B6849
:100D800093401F43F7620A68072306680A2A0AD3BA
:100D9000F7680A3A02EB420293409F438B68934004
:100DA0001F43F76008E0376902EB420293409F431C
:100DB0008B6893401F4337610A68102A01D0112ABB
:100DC00020D1124B02689A4217D193681B0219D4A2
:100DD000936843F4000393600968102912D10C4909
:100DE0000C4A0968B1FBF2F101EB8101490000E016
:100DF000491E00910029FBD104E0816A41F02001E5
:100E00008162012480F824502046F8BD002401406E
:100E10001800002040420F002DE9F0414FF000077C
:100E200004003D467ED0A06A002628B9E66284F818
:100E30002460204600F07EF82046FFF7BFFCA16A40
:100E4000C90600D420B1A06A40F01000A06269E099
:100E5000A16A21F4885141F00201A1626268E1694E
:100E6000237B0A4347EA43010A43A1684FF4807792
:100E7000B94209D0012907D05FF0000194F814C0ED
:100E8000BCF1010F02D00AE03946F7E7F3B1A36ADB
:100E900043F02003A362E36A43F00103E3622368A3
:100EA000D3F804C02CF4694C4CEA010CC3F804C01C
:100EB00021688B68DFF870C003EA0C0313438B6072
:100EC000A168B9420BD0012909D00CE0DFF85CC061
:100ED000A3690CEB43330B4343F40061DFE7218A42
:100EE0000D05A5F580152168CB6A23F470032B430B
:100EF000CB62216889680E4B1940914208D1E662A5
:100F0000A16A21F0020141F00101A162BDE8F08176
:100F1000A06A20F0020040F01000A062E06A40F0F9
:100F20000100E0620120F1E7FDF7E1FF00E0FFFFD3
:100F3000FE0E1FFF00B585B00021009101910291C6
:100F4000039100680E49884218D10E48816941F426
:100F500000718161816901F400710491816941F03E
:100F6000080181618069694600F008000490022050
:100F7000009003200190044800F08AF805B000BDFD
:100F80000024014000100240000C014010B590F810
:100F900021100022022905D00421816380F820203D
:100FA000012010BD01680B6823F00E030B6001687F
:100FB0000B6823F001030B6090F84030C46B0121F3
:100FC00001FA03F3636080F8211080F820201046B6
:100FD00010BD000010B590F821100024022903D0A4
:100FE0000421816301243DE001680A6822F00E02B9
:100FF0000A6001680A6822F001020A601A4A016860
:10100000914201D1012121E0174A1432914201D1CC
:1010100010211BE0144A2832914201D1891515E0B4
:10102000114A3C32914201D189140FE00E4A5032EC
:10103000914202D14FF4803108E00B4A6432914270
:1010400002D14FF4801101E04FF08071064A083A56
:101050005160012180F82110002180F82010416B9F
:1010600001B18847204610BD0800024070B5044613
:1010700000F004F90546601C02D0044800780444DE
:1010800000F0FCF8401BA042FAD370BD0C00002019
:101090002DE9F84FDFF8B8910024A9F1040B23469D
:1010A0000F2709F1040AABF1040EC9E00125A540A0
:1010B0002A40AA427DD1674ED1F804C0ACEB0608A5
:1010C000B44532D014DCBCF1030F3AD009DCBCF1DA
:1010D000000F2AD0BCF1010F1CD0BCF1020F31D19E
:1010E0001DE0BCF1110F17D0BCF1120F2AD119E08D
:1010F000B8F5881F19D006DCB8F5803F15D0B8F5D3
:10110000801F1FD111E0B8F5001F0ED0B8F5041FE5
:1011100018D10AE0CB6815E0CB681B1D12E0CB6844
:1011200008330FE0CB680C330CE08B682BB1012B3C
:101130004FF0080303D0456104E0042302E0056199
:1011400000E00023FF2A01D8064601E000F1040672
:101150004FEA840501D9A5F12005D6F8008007FAE9
:1011600005FC28EA0C0803FA05F548EA0508C6F864
:1011700000804D68ED0062D5374DAE6946F001063E
:10118000AE61AD6924F0030605F001050095334D0D
:1011900006EB050CDCF80850A607360F07FA06F830
:1011A00025EA0805DFF8B880404503D14FF0000874
:1011B00017E044E0DFF8AC80404502D14FF0010871
:1011C0000FE0DFF8A480404502D14FF0020808E0AC
:1011D000DFF89880404502D14FF0030801E04FF05E
:1011E000040808FA06F848EA0508CCF808804D68B3
:1011F000D9F80060ED024D4601D5164300E0964354
:101200002E604D68DAF80060AD02554601D51643F0
:1012100000E096432E604D68DBF80060AD035D464C
:1012200001D5164300E096432E604D68DEF800605D
:10123000ED03754601D5164300E096432E60641C0D
:101240000D682A46E5407FF431AFBDE8F88F000015
:10125000080401400000111000100240000001408D
:1012600000080140000C0140001001400014014042
:101270000AB1016170470904FBE70000014880687A
:10128000704700000C000020024881680278114479
:10129000816070470C000020074810B5016841F0DC
:1012A00010010160032000F075F80F2000F006F82F
:1012B00000F024F8002010BD0020024070B50D4D54
:1012C00004464FF47A712878B1FBF0F00A490968B6
:1012D000B1FBF0F000F056FD48B9102C07D2002207
:1012E0002146501E00F036F800206C6070BD0120D1
:1012F00070BD00000C000020180000200C4808B54C
:10130000816941F001018161816901F00101009170
:10131000C16941F08051C161C06900F08050009006
:101320000448416821F0E06141F00071416008BD6E
:101330000010024000000140002809DB00F01F02FD
:10134000012191404009800000F1E020C0F8001127
:1013500070470000F0B40E4B1B680C46C3F3022329
:10136000C3F10705042D00D90425191D072901D251
:10137000002300E0DB1E012606FA05F1491E21408C
:1013800099409E40761E16403143F0BC01F0DFBE0E
:101390000CED00E0064900F0070208684FF6FF0375
:1013A000184040EA0220034A1043086070470000DA
:1013B0000CED00E00000FA052DE9F8430546007841
:1013C000354CC00754D0E0690026C00008D4E0695D
:1013D00040F08050E061E069012600F0805000900C
:1013E0002E480168C90512D40168804641F4807115
:1013F0000160FFF743FF074605E000BFFFF73EFF30
:10140000C01B642823D8D8F80000C005F6D5206A90
:1014100010F4407021D0A98801F4407181421CD0A1
:10142000206A1F49012220F440700A6000220A60ED
:101430002062C00711D0FFF721FF074641F288382C
:1014400008E000BFFFF71AFFC11B414502D9032086
:10145000BDE8F883206A8007F4D5206A696820F423
:101460004070084320621EB1E06920F08050E061C6
:101470002878800705D56068A96820F440400843B3
:1014800060602878C00605D56068E96820F48000AF
:10149000084360600020DBE700100240007000405D
:1014A000400442422DE9F0470F46050061D0434E0B
:1014B000306800F00700B84209D2306820F0070019
:1014C00038433060306800F00700B84251D12868D6
:1014D0003B4C810712D5400703D5606840F4E060BB
:1014E00060602878000703D5606840F46050606051
:1014F0006068A96820F0F000084360602878C007A1
:1015000028D06868012810D02168022810D08907E7
:1015100000292EDA616821F0030101436160FFF7C1
:10152000ADFE804641F288390DE021688903EFE77E
:101530008901EDE7FFF7A2FEA0EB0801494502D9BA
:101540000320BDE8F0876068696800F00C00B0EB2C
:10155000810FEFD1306800F00700B8420BD9306836
:1015600020F0070038433060306800F00700B842D0
:1015700001D00120E5E72878400705D56068E968D3
:1015800020F4E060084360602878000706D56068B2
:10159000296920F4605040EAC100606000F038F82A
:1015A0006168084AC1F30311515CC84006490860EC
:1015B00006480068FFF782FE0020C2E700200240D4
:1015C000001002406E3500081800002010000020B6
:1015D0000448054900684968044AC1F30221515C86
:1015E000C840704718000020001002407E350008F7
:1015F0000448054900684968044AC1F3C221515CA6
:10160000C840704718000020001002407E350008D6
:101610000E4A51680E4801F00C03042B11D0082B20
:101620000FD10C48C1F38343C903C05C0AD551688C
:10163000084AC1F34041921E515C054A5043B0FB39
:10164000F1F0704704494843704700000010024021
:1016500000127A005E35000800093D002DE9F84FC0
:10166000040070D02078C04DC00749D06868C0F32E
:101670008100012807D06868C0F38100022809D1E1
:101680006868C00306D52868800339D560680028DB
:10169000E7D035E06068B0F5803F0BD010B1B0F511
:1016A000A02F11D0286820F480302860286820F40A
:1016B000802002E0286840F480302860606890B1A3
:1016C000FFF7DCFD06460AE0286840F48020286029
:1016D000F0E700BFFFF7D2FD801B642873D82868AD
:1016E0008003F7D50CE0FFF7C9FD064605E000BF13
:1016F000FFF7C4FD801B6428F0D828688003F7D466
:1017000020789A4E80074FF001094FF0000839D534
:10171000686810F00C0F07D06868C0F381000228D9
:1017200009D16868C00306D42868800714D52069E9
:10173000012808D110E02069B0B1C6F80090FFF789
:101740009DFD074605E00AE1FFF798FDC01B022852
:10175000C4D828688007F7D52868616920F0F800A8
:1017600040EAC10028600DE0C6F80080FFF786FD62
:10177000074604E0FFF782FDC01B022823D8286833
:101780008007F7D4207800072CD57948A169D9B112
:10179000C0F80090FFF772FD074604E0FFF76EFD0A
:1017A000C01B02280FD8686A8007F7D571484FF42C
:1017B000FA510068B0FBF1F0009000BF0098411EA4
:1017C0000091FAD20EE080E0C0F80080FFF756FDED
:1017D000074604E0FFF752FDC01B022875D8686A6F
:1017E0008007F7D42078400760D5E8690027C0005B
:1017F00008D4E86940F08050E861E869012700F00A
:10180000805000905C480168C90513D40168834684
:1018100041F480710160FFF731FD824606E000BFB0
:10182000FFF72CFDA0EB0A0064284ED8DBF800007F
:10183000C005F5D5E06801280AD008B1052813D005
:10184000286A20F001002862286A20F0040002E0E3
:10185000286A40F001002862E06841F2883B98B1B4
:10186000FFF70CFD82460BE0286A40F00400286276
:10187000EEE700BFFFF702FDA0EB0A0159455AD879
:10188000286A8007F6D50CE0FFF7F8FC824605E0F1
:10189000FFF7F4FCA0EB0A0159454CD8286A8007F1
:1018A000F6D41FB1E86920F08050E861E06988B3A0
:1018B0006968C1F38101022944D00228C6F860801A
:1018C00004D0FFF7DBFC044638E034E0FFF7D6FC39
:1018D000074604E0FFF7D2FCC01B02282BD828687B
:1018E0008001F7D4206AB0F5803F05D16868A1680F
:1018F00020F4003008436860D4E9080108436968AF
:1019000021F4741108436860C6F86090FFF7B6FCD4
:10191000044606E025E000BFFFF7B0FC001B0228EC
:1019200009D828688001F7D51BE000BFFFF7A6FCA7
:10193000001B022802D90320BDE8F88F2868800127
:10194000F4D40EE00128F7D06868226A00F48031F0
:10195000914204D1616A00F47010884201D00120E4
:10196000EAE70020E8E700000010024000004242E1
:1019700080044242180000200070004070470000C0
:1019800038B50446006842688168C9434B0606D5ED
:10199000CB0704D1D3435B0601D4216C05E08B0750
:1019A00008D4D3431B0605D4616C01B02046BDE8C2
:1019B000304008478B0601D54B0646D4D3439B06DF
:1019C00043D44B060AD494F85130032B3ED0636DB8
:1019D00043F004036365C36883680093890609D4F0
:1019E000616D41F00101616581680091016821F03C
:1019F00040010160606D002827D02068416821F017
:101A0000E0014160012084F85100900722D0206855
:101A1000416821F003014160104DE06C40B1456325
:101A2000E06CFFF7D7FA18B1606D40F040006065D8
:101A3000A06C002809D04563A06CFFF7CBFA002802
:101A400003D0606D40F04000606538BDC1688068BB
:101A5000009038BD2046FFF791FF38BDC12C00082B
:101A600070B5040009D0606A002540B12561656148
:101A7000A56294F8510040B10CE0012070BD60688F
:101A8000B0F5827FF4D0E561F2E784F8505020464B
:101A900000F040F8022084F851002068016821F02D
:101AA00040010160A088218900F4827001F40441A2
:101AB0000843A18901F400610843217C01F002017F
:101AC0000843217D01F001010843218B01F40071DD
:101AD0000843217F01F03801084394F8201001F0F9
:101AE00080010843218D01F40051084321680860FA
:101AF000A069042101EA1040216848602068C1699A
:101B000021F40061C1616565012084F85100002065
:101B100070BD000030B585B000240094019402949B
:101B200003940068184988422BD11848816941F410
:101B300080518161816901F480510491816941F092
:101B4000040181618069124D00F004000490A0201E
:101B50000090022001900320039069462846FFF779
:101B600097FA4020CDE90004694628460294FFF721
:101B70008FFA002202212320FFF7ECFB2320FFF73E
:101B8000DBFB05B030BD000000300140001002401A
:101B9000000801402DE9FF4F81B01D4693460446E1
:101BA0004FF001090E9EFFF769FB074694F85100BC
:101BB0006168012806D0B1F5827F3CD1A168C9BB1C
:101BC000042838D10298002871D0BBF1000FFBD057
:101BD000002DF9D094F8500001282CD04FF0010AC4
:101BE00084F850A094F85100042802D0052084F80D
:101BF00051004FF00008C4F85480C4F838B0E587AD
:101C0000A58702992163E586A586C4F84080C4F8BB
:101C1000448020680168490603D4016841F040010E
:101C20000160E068B0F5006F606808D0F0B3012D86
:101C300049D081E0FFE7022005B0BDE8F08F08B190
:101C4000012D39D1206B21680088C860206B801C71
:101C50002063E08E401EE0862EE0206881688907C0
:101C60000FD5E18E69B1B9F1010F0AD1216B098855
:101C7000C160206B801C2063E08E401EE0864FF028
:101C8000000920688168C9070CD0E18F51B1C06894
:101C9000A16B0880A06B801CA063E08F401EE087D2
:101CA0004FF00109FFF7EAFAC01B01E00BE067E023
:101CB000B04201D3701C50D1E08E0028CDD1E08F0E
:101CC0000028CAD13EE0206B216800780873206BA1
:101CD000401C2063E08E401EE0862DE02068816875
:101CE00089070FD5E18E69B1B9F1010F0AD1216BD6
:101CF00009780173206B401C2063E08E401EE08653
:101D00004FF0000920688168C9070CD0E18F51B1FC
:101D1000C068A16B0870A06B401CA063E08F401EE0
:101D2000E0874FF00109FFF7A9FAC01BB04202D3C8
:101D3000701C01D011E086B1E08E0028CED1E08F7A
:101D40000028CBD13A463146204600F0C1FF50B1C1
:101D50002020606584F8508012E084F851A084F857
:101D60005080032068E7A06818B92068C1688068BF
:101D7000009084F851A084F85080606D0028F1D064
:101D8000012059E710B5401EB0F1807F01D301203A
:101D900010BD4FF0E02460610F21601701F0D7F90A
:101DA0000020A06107202061002010BD704770470F
:101DB000F8B5016804460868CA684B6910F00F0F4F
:101DC0004FF0000559D003F0010602F49077374335
:101DD00065D0C10705D0D10503D5616C41F0010183
:101DE0006164410705D5D90703D0616C41F0020158
:101DF0006164810705D5D90703D0616C41F0040106
:101E00006164010707D502F02001314303D0616C02
:101E100041F008016164616C00293AD0800604D564
:101E2000900602D5204601F073F820684069616C85
:101E3000C0F38010090700D460B3204601F041F8D8
:101E400020684069400621D52068143050E8001F02
:101E500021F0400140E80012002AF5D1E06BA8B162
:101E60006D494163E06BFFF7B5F8002811D0E06BD6
:101E7000416B01B0BDE8F040084783060FD59306DB
:101E80000DD52046BDE8F84001F042B82046FFF7E6
:101E90008EFFF8BD2046FFF78AFF6564F8BD266B0C
:101EA0002023012E7CD1C6067AD5D60678D50868BF
:101EB0004868009048694FF00206400640D5E16B43
:101EC000086840680004000CE8D0A28D8242E5D981
:101ED000E085886920282DD020680C3050E8001F4C
:101EE00021F4807140E80012002AF5D120681430F6
:101EF00050E8001F21F0010140E80012002AF5D14E
:101F00002068143050E8001F21F0400140E8001222
:101F1000002AF5D184F84230256320680C3050E85F
:101F2000001F21F0100140E80012002AF5D1E06BFB
:101F3000FFF72CF86663A08DE18D401A81B22AE08C
:101F4000A08DE18D401A81B2E08D0028A6D0002935
:101F5000A4D022680C3252E8000F20F4907042E8BE
:101F60000007002FF5D12068143050E8002F22F030
:101F7000010240E80027002FF5D184F842302563A4
:101F800020680C3050E8002F22F0100240E80023B7
:101F9000002BF5D166632046FFF708FFF8BDFFE789
:101FA00005062BD5150629D594F841002128F5D131
:101FB000A068B0F5805F01D12069B0B1206A411CF2
:101FC0002162216800784860E08C401E0004000C0B
:101FD000E084E3D12068C16821F08001C1602068FD
:101FE000C16841F04001C160D8E7206A0088C0F3B1
:101FF00008004860206A801C2062E5E74006CDD5D5
:102000005006CBD5CA68204622F04002CA6084F848
:10201000413000F09FF9C1E7B32E000870B504000D
:1020200004D094F84100002510B106E0012070BDF5
:1020300084F84050204600F023F8242084F8410022
:102040002068C16821F40051C160204600F0C2FF41
:102050002068016921F4904101612068416921F003
:102060002A0141612068C16841F40051C160656482
:10207000202084F8410084F842006563002070BD90
:1020800030B585B0002400940194029403942E4D41
:1020900003682E4802210322AB4227D1C36943F4CF
:1020A0000033C361C36903F400330493836943F0CD
:1020B000040383618069264D00F00400049004202D
:1020C000CDE90001039269462846FEF7E1FF0820AA
:1020D000CDE90004694628460294FEF7D9FF0022A4
:1020E00011462620FFF736F9262029E0194DAB428C
:1020F00028D1C36943F48023C361C36903F48023F7
:102100000493836943F0080383618069039200F0BC
:10211000080004902815CDE900010F4D69462846B6
:10212000FEF7B6FFE814CDE900046946284602949C
:10213000FEF7AEFF002201212720FFF70BF9272031
:10214000FFF7FAF805B030BD00440040001002402F
:102150000008014000480040000C014090F8423067
:10216000202B01D00220704721B11AB10023036354
:1021700000F08CBF012070472DE9F0413F498842B3
:1021800017D13F480188090411D40188FF2901882B
:102190000AD8491C01803B490088BDE8F041014450
:1021A00001223648FFF7DABF41F400410180BDE863
:1021B000F08135498842FAD1344C20880004F6D4A5
:1021C0002088FF28208854D8401C2080304D20884B
:1021D000012229182C48FFF7C1FF2EA12846FEF73F
:1021E0003BF9002601274FF4807830B12C48077066
:1021F00041462846FEF7B3F92680208800B3002028
:102200001AE0295C442915D129184A78492A11D1A4
:102210008A78532A0ED1CA78432A0BD10A794F2AD9
:1022200008D14A794E2A05D18A794E2A02D1C97934
:10223000452916D0401CC0B2218808398842E0DD0B
:1022400020880728B3D317A11148FEF705F9002805
:10225000ADD01648077041460D48FEF780F926803C
:10226000A5E71348077041460948FEF778F926802C
:10227000E6E740F40040208099E700001C010020C0
:102280001C000020E4060020D400002008000020EC
:1022900064010020434F4E4E454354204F4B0000F5
:1022A00000000020616464206E666300020000206C
:1022B000010000202DE9F843044690F841009846BB
:1022C00016460D46202802D00220BDE8F88385B1CD
:1022D0007EB100206064212084F84100FEF7CEFF2B
:1022E000A6848146E684A0682027B0F5805F02D0EE
:1022F00003E00120E9E7206910B12E4600250EE039
:1023000000260CE08021204600F0DBFEA8B9C6B113
:1023100016F8010B21684860E08C401EE084E08CD8
:102320004B464FF00002CDF800800028EAD14FF074
:102330004001204600F0C5FE40B184F84170032002
:10234000C3E735F8020BC0F30800E3E784F84170F7
:102350000020BAE77047FEE770B501220E4D9403E6
:1023600021462846FEF784FF0122560331462846BF
:10237000FEF77EFF00F048F8002221462846FEF7CF
:1023800077FF00F041F8002231462846FEF770FF43
:10239000BDE8704000F038B80010014070B50B4D3A
:1023A0004FF48044002221462846FEF761FF0122B7
:1023B00051032846FEF75CFF00F026F82146284628
:1023C000BDE870400122FEF753BF0000001001403D
:1023D00070B50C4C012291032046FEF749FF00F036
:1023E00013F80122550329462046FEF741FF00F06D
:1023F0000BF8002229462046FEF73AFFBDE8704060
:1024000000F002B8001001400320401EC0B2FCD210
:10241000704700002DE9F041074600240A4E0B4D9D
:1024200009E000BF06EB840104223846FEF726F8D7
:1024300038B1641CE4B2E8788442F3D30020BDE8EC
:10244000F0810120FBE700002400002000000020B4
:1024500070B50C46054600F0A9F820EA04012846AC
:10246000BDE8704000F0CAB82DE9FF5F0027FE25E7
:10247000DDF838A016468B468146B8460C2805D0B4
:10248000B9F10E0F05D11227102001E07727302077
:10249000804647F08001022000F0B0F8802104203F
:1024A000FFF7D6FF0021012000F0A8F880210A20C4
:1024B00000F098F8002405E01BF80410092000F053
:1024C0009DF8641CB442F7D34946012000F096F809
:1024D000B9F10C0F03D180210D2000F083F8294EB3
:1024E000042000F063F80446761E04D0E00702D111
:1024F00014EA080FF4D080210D20FFF7A9FF36B1B0
:10250000062000F053F810F01B0F0CD0FE258021A0
:102510000C2000F067F80021012000F06FF804B0F3
:102520002846BDE8F09F00253C40E00700D0FF258D
:10253000B9F10C0FEBD10A2000F038F804460C205A
:1025400000F034F810F007004FEAC40104D0083955
:102550000844AAF8000001E0AAF8001024B1122CE7
:1025600004D91224002603E00124FBE7002605E03D
:10257000092000F01BF803998855761CA642F7D372
:10258000C5E70000E093040010B5012210210548C2
:10259000FEF76EFE0122BDE8104011460248FEF72C
:1025A00067BE000000080140000C014070B57E21AC
:1025B00001EA40000A4D40F0800400221021284624
:1025C000FEF756FE204600F06BFB002000F068FB93
:1025D0000446012210212846FEF74AFE204670BD1F
:1025E0000008014070B50C460546FFF7DFFF40EAE2
:1025F00004012846BDE87040AFF3008070B50E4678
:102600007E2101EA4004094D002210212846FEF7F0
:102610002FFE204600F044FB304600F041FB2846E8
:10262000BDE8704001221021FEF722BE00080140E3
:102630003EB5002411480094019402940E49846030
:10264000016004730475012505614FF46021446045
:10265000C161FEF7E1FB08B1FEF75EFB0920CDE9A1
:102660000005694602940548FEF758FB002801D092
:10267000FEF752FB3EBD0000002401404C0000204C
:102680002DE9F04186B00020009001900290039067
:102690002948816941F010018161816901F01001CF
:1026A0000491816941F020018161816901F020017B
:1026B0000491816941F004018161816901F00401A3
:1026C0000491816941F00801816180691B4E00F02D
:1026D00008004FF4C0440490012221463046FEF722
:1026E000C7FD174F012210213846FEF7C1FDDFF864
:1026F0005480012211464046FEF7BAFD00940124A1
:102700000325694630460194CDE90245FEF7C0FC39
:102710001020CDE9000469463846CDE90245FEF7B0
:10272000B7FC0094694640460194CDE90245FEF7A6
:10273000AFFC06B0BDE8F08100100240001001407F
:1027400000080140000C0140104810B50E4901601E
:102750004FF48271416000218160C1604FF40072CA
:102760000161C0E905121822C0E9072141628162B6
:102770000A21C162FFF774F9002803D0BDE81040B8
:10278000FEF7CABA10BD0000003001407C000020F6
:1027900010B50F4C0D480C2120604FF4E130606003
:1027A0000020A060E060C4E90401A061E06120466F
:1027B000FFF734FC08B1FEF7AFFA20684068BDE8C7
:1027C0001040012203490248FFF7C8BC0044004002
:1027D000D40000206401002010B50F4C0D480C21DE
:1027E00020604FF4614060600020A060E060C4E9B8
:1027F0000401A061E0612046FFF710FC08B1FEF77C
:102800008BFA20684068BDE8104001220349024865
:10281000FFF7A4BC004800401C010020E406002093
:10282000FEE7FEE730B40021084B0A465FF00000E7
:1028300003EBC004401CC0B262548028F8D3491C8A
:10284000C9B20829F2D330BC00F086B86402002077
:1028500030B5CC0801F0070301259D40EBB2064DD1
:1028600005EBC005C808285C0AB1184302E063EA1A
:102870000000C043285530BD6402002010B500217F
:10288000AE2000F02DF90021084600F029F90021C2
:10289000102000F025F90021402000F021F900214E
:1028A000812000F01DF90021CF2000F019F900214E
:1028B000A12000F015F90021C82000F011F9002135
:1028C000A62000F00DF90021A82000F009F9002150
:1028D0003F2000F005F90021D32000F001F900218C
:1028E000084600F0FDF80021D52000F0F9F800219D
:1028F000802000F0F5F80021D92000F0F1F8002147
:10290000F12000F0EDF80021DA2000F0E9F80021D4
:10291000122000F0E5F80021DB2000F0E1F80021B2
:10292000302000F0DDF80021202000F0D9F800214F
:10293000022000F0D5F800218D2000F0D1F8002110
:10294000142000F0CDF8FFF76DFF0021BDE8104026
:10295000AF2000F0C5B8000070B5184E002400BFCD
:1029600004F1B000C0B2002100F0BAF8002108461E
:1029700000F0B6F80021102000F0B2F8FFF7ECFCF0
:10298000782000F02DFAFFF723FD402000F028FA10
:10299000FFF71EFD5FF0000506EBC500005D00F0CF
:1029A0001FFAFFF715FD6D1CEDB2802DF4D3FFF774
:1029B000F5FC641CE4B2082CD2D370BD6402002084
:1029C0002DE9FC4F1C460E4682468B460190082B93
:1029D0000DD0600700D0012000EBD400610848430F
:1029E000C0B28146203AD0B2009000204BE00620D1
:1029F000F7E7082C13D00C2C18D0102C1BD0182C57
:102A000044D10098234900EBC00000BF01EB8001D6
:102A1000002711F80850E80712D00B9A13E000982D
:102A20001D4900EB400001EB4001F1E700981B4914
:102A300000EB4000EAE71A49009801EB0011E7E7D4
:102A40000B9828B3002231465046FFF701FF761C51
:102A50007F1C6D08FFB2F6B2082FDCD30AF101002B
:102A600000F0FF0A082C0AD00199AAEB0100B0EB94
:102A7000540F04D10BF108008A4600F0FF0B08F157
:102A800001005E46C0B280464845B2D3BDE8FC8F27
:102A90000122D8E71242000886350008AE37000848
:102AA000223C00082DE9F8411E461546884604469A
:102AB000079F0BE03346414620460097FFF780FF13
:102AC000082E0AD004EB5600C4B26D1C2A78A2F17D
:102AD00020005E28EED9BDE8F881A41DE4B2F4E739
:102AE00070B50C460546FFF737FC782000F078F902
:102AF000FFF76EFC0CB1402000E0002000F070F900
:102B0000FFF766FC284600F06BF9FFF761FCBDE8B3
:102B10007040FFF743BC03211420FFF799BC10B5A8
:102B20001420FFF743FD800705D10321BDE81040C5
:102B30001420FFF757BD10BD70B50646082188B0B8
:102B400000240846FFF784FC00210D20FFF756FD06
:102B500080210E20FFF77CFC93208DF804002020BC
:102B60008DF8050006A801AB0090022219460C2042
:102B7000FFF77AFC05000DD1002101A8425C7254D8
:102B8000425C491C5440C9B20429F7D3405CA042BE
:102B900000D0FE2580210E20FFF724FD08B0284636
:102BA00070BD10B5FFF7F0FC00F02EF8FFF7B3FF93
:102BB000BDE81040FFF7B3BF30B50C46054608210D
:102BC00087B00846FFF744FC07210D20FFF716FDEC
:102BD00003211420FFF706FD06A801AB00908DF835
:102BE0000450012219460C20FFF73EFC002809D1B1
:102BF000BDF81810102905D19DF8041021709DF81A
:102C00000510617007B030BD10B5204C012211468F
:102C10002046FEF72DFB0220FEF728FA00220121B4
:102C20002046FEF725FB0220FEF720FA012211467E
:102C30002046FEF71DFB0220FEF718FA0F210120A7
:102C4000FFF7DCFC0220FEF711FA3D211120FFF70F
:102C5000D5FC1E212D20FFF7D1FC00212C20FFF7F1
:102C6000CDFC8D212A20FFF7C9FC3E212B20FFF748
:102C7000C5FC40211520FFF7C1FCFFF74CFF0220E7
:102C8000FEF7F4F9BDE81040FFF749BF000C014022
:102C9000704700000148FEF773BE00007C00002072
:102CA00001B582B00A200090012301AA02A90348BD
:102CB000FEF770FF9DF804000EBD00007C000020B0
:102CC00010B5406A0021C187C186FEF757FE10BDCE
:102CD000F8B515460E460B46009204460122022125
:102CE00000F010F840B933460022802120460095BC
:102CF00000F008F8002804D0606D40F02000606506
:102D00000320F8BD2DE9F8431E4691468846044647
:102D1000089DFEF7B3FA401B351AFEF7AFFA0746D7
:102D200025480068C0F3CB30684338E0701C37D0CA
:102D3000FEF7A4FAC01BA84203D215B1009860B3F5
:102D40002CE02068416821F0E00141606068B0F546
:102D5000827F0BD1A068B0F5004F02D0B0F5806F34
:102D600004D12068016821F040010160A06AB0F53B
:102D7000005F09D12068016821F4005101602068DA
:102D8000016841F400510160012084F851000020E5
:102D900084F850000320BDE8F8830025401E009011
:102DA0002068816838EA010004D000214945BDD17E
:102DB0000020F0E70121F9E718000020704700002B
:102DC000054AD1780A2906D2044B006803EB810337
:102DD000491C1860D17070470000002024000020BA
:102DE0002DE9F041124F002405464FF480487E142F
:102DF000280601D5012200E0002241463846FEF7B0
:102E000037FAFFF701FB012231463846FEF730FA68
:102E1000FFF7FAFA002231463846FEF729FA68062B
:102E2000641C050EE4B2082CE2D3BDE8F08100007A
:102E300000100140FEF728BA30B593B0282168464B
:102E4000FDF7AFFB14210AA8FDF7ABFB002501201D
:102E50000F9510951195010412958DE823000490AB
:102E60004FF4E010CDE90810022407946846FEF7FD
:102E7000F5FB08B172B6FEE70AA90F2081E8310020
:102E80004FF48060CDE90D0502210AA8FEF70AFB88
:102E900008B172B6FEE74FF4004011900F940FA8EE
:102EA000FEF78AFA002801D072B6FEE713B030BDF3
:102EB000704710B5406A0021C185C184FEF777FFD5
:102EC00010BD01680C3151E8002F22F4907241E8E6
:102ED0000023002BF5D10168143151E8002F22F0B6
:102EE000010241E80023002BF5D1016B012909D132
:102EF00001680C3151E8002F22F0100241E8002354
:102F0000002BF5D1202180F8421000210163704789
:102F100008B590F84210222901D0022008BD82682D
:102F20004FF480539A4201D1016921B1816A9A42DA
:102F30001BD04AB10AE00268816A5268C2F30802F3
:102F40000A80816A891C08E0026972B102685268CD
:102F500002F07F020A70816A491C8162C18D491E9C
:102F60000904090CC18503D01BE002685268F1E72F
:102F70000168CA6822F02002CA600168CA6822F4A7
:102F80008072CA6001684A6922F001024A61202108
:102F900080F8421000214163026B012A03D0FFF741
:102FA000EBF8002008BD016301680C3151E8002FE7
:102FB00022F0100241E80023002BF5D101680A68D5
:102FC000D20602D50A6849680091818DFEF7EEFEAF
:102FD000E7E7000070B5044600680169E26821F483
:102FE0004051114301612169A068084361690843A8
:102FF0002168CA6841F20C639A430243CA602068A0
:103000004169A26921F44071114341611E49206860
:10301000884202D1FEF7ECFA01E0FEF7D9FA00EBA4
:10302000C00101EB0012606864218000B2FBF0F384
:10303000B3FBF1F36FF018067343B2FBF0F5B2FB8C
:10304000F0F605EB8305322303EB0515B5FBF1F52F
:10305000B6FBF1F605F0F00505EB0615B2FBF0F650
:10306000B2FBF0F0B0FBF1F06FF01802504306EB4A
:10307000800003EB0010B0FBF1F0216800F00F00BE
:103080002844886070BD000000380140816282855C
:10309000C28500214164222180F84210016921B1DA
:1030A0000168CA6842F48072CA6001684A6942F0E5
:1030B00001024A610068C16841F02001C16000203E
:1030C00070472DE9F843984617460D460446089E7A
:1030D00024E0701C22D0FEF7D1F8A0EB0800B0422B
:1030E0001AD8CEB12068C168490717D5802D15D0F0
:1030F000402D13D00168C94309070FD4016800258A
:10310000406800902046FFF7DCFE0820606484F8E9
:1031100040500120BDE8F8830320FBE720680068E9
:1031200035EA000004D00020B842D2D00020F1E7F8
:103130000120F9E70148FEF73BBE0000D400002063
:103140000148FEF735BE00001C010020FEE709071C
:10315000090E002804DB00F1E02080F8001470471D
:1031600000F00F0000F1E02080F8141D70473038A7
:103170000A2801D201207047002070478EB0FEF768
:103180008BF8FFF759FEFFF77BFAFFF751FAFFF7CD
:10319000DBFAFFF721FBFFF7FBFAFFF76FFB0124D8
:1031A00000210823A5A208460094FFF77BFCFFF747
:1031B000D3FB4FF47A794846FDF758FFFFF7F1FC4F
:1031C000FDF78EFBFFF72EFB002108239FA2084688
:1031D0000094FFF767FCFFF7BFFBA01E029002A858
:1031E000FDF744FB4FF4FA65A8B1FFF71BFB002184
:1031F00008239BA208460094FFF754FC08239CA2D6
:10320000194600200094FFF74DFCFFF7A5FB284668
:10321000FDF72CFFFEE7FFF705FB0021082390A236
:1032200008460094FFF73EFC082393A219460020AD
:103230000094FFF737FCFFF78FFBA8462846FDF701
:1032400015FFFFF7EFFA002108238EA2084600942D
:10325000FFF728FC082390A2194600200094FFF7EE
:1032600021FCFFF779FB924D00264FF4FA77EE70C0
:103270002878E0B1FFF7D6FA0021082381A208469A
:103280000094FFF70FFC082383A219460020009446
:10329000FFF708FC082387A2102100200094FFF705
:1032A00001FCFFF759FB4046FDF7E0FE2E70687801
:1032B000E0B1FFF7B7FA0021082372A20846009494
:1032C000FFF7F0FB082374A2194600200094FFF7D3
:1032D000E9FB08237BA2102100200094FFF7E2FB0A
:1032E000FFF73AFB4046FDF7C1FE6E70A878A0B12B
:1032F000FFF798FA0021082377A208460094FFF709
:10330000D1FB082378A2194600200094FFF7CAFBDE
:10331000FFF722FBAE70FDF729FC0CA92620FFF772
:103320004BFC002847D103A8FFF706FC002842D138
:103330009DF80F109DF80E00CDE900019DF80D30AD
:103340009DF80C206EA104A8FCF746FFFFF76AFA6F
:103350000021082370A208460094FFF7A3FB08236E
:1033600004AA194600200094FFF79CFB03A8FFF76E
:1033700051F84FF00803009408B16BA200E06DA271
:1033800010210020FFF78EFBFFF7E6FA4846FDF715
:103390006DFEFFF747FA002108233AA20846009481
:1033A000FFF780FB08233CA2194600200094FFF79A
:1033B00079FBFFF7D1FAFDF761FF6968411AB9425D
:1033C00037D36860ADF80460ADF834600DA901A88A
:1033D000FDF7B6FB00282CD1FFF724FA00210823C3
:1033E00058A208460094FFF75DFBBDF8042059A1E0
:1033F00008A8FCF7F1FE082308AA1946002000944B
:10340000FFF750FBFFF7A8FA4846FDF72FFEFFF73E
:1034100009FA002108231BA208460094FFF742FB8B
:1034200008231DA2194600200094FFF73BFBFFF77D
:1034300093FA6420FDF71AFE1AE70000496E6974DA
:1034400069616C697A696E672E2E2E004368656328
:103450006B696E672041533630382E2E2E000000E7
:1034600041533630382048616E647368616B650083
:103470004661696C656421005375636365737321EC
:10348000000000005761697420666F72204E464349
:1034900020636172640000005761697420666F7276
:1034A0002066696E6765727072696E740000000054
:1034B00000000020424C4520436F6E6E65637465CA
:1034C00064000000424C4520446973636F6E6E6572
:1034D0006374656400000000416464204E4643202C
:1034E0004361726400000000506C65617365206187
:1034F0007070726F61636820636172640000000025
:1035000049443A2025303258202530325820253081
:10351000325820253032580043617264204465746B
:103520006563746564000000526567697374657251
:10353000656400004E6F742052656769737465722C
:103540006564000046696E6765722056657269663B
:103550006965640049443A202564000001020203C1
:103560000405060708090A0B0C0D0E0F10100000C9
:103570000000000000000102030406070809000023
:103580000000010203040000000000000000002F02
:10359000000000000700070000147F147F140024BF
:1035A0002A7F2A12006264081323003649552250EC
:1035B00000000503000000001C2241000000412221
:1035C0001C000014083E08140008083E080800000B
:1035D00000A0600000080808080800006060000003
:1035E000002010080402003E5149453E0000427F81
:1035F0004000004261514946002141454B310018CD
:1036000014127F10002745454539003C4A4949308E
:103610000001710905030036494949360006494948
:10362000291E000036360000000056360000000853
:103630001422410000141414141400004122140830
:1036400000020151090600324959513E007C121115
:10365000127C007F49494936003E41414122007FAA
:103660004141221C007F49494941007F0909090164
:10367000003E4149497A007F0808087F0000417FE9
:103680004100002040413F01007F08142241007F9B
:1036900040404040007F020C027F007F0408107F02
:1036A000003E4141413E007F09090906003E41516B
:1036B000215E007F09192946004649494931000128
:1036C000017F0101003F4040403F001F2040201F7C
:1036D000003F4038403F006314081463000708703F
:1036E000080700615149454300007F4141000055F2
:1036F0002A552A55000041417F00000402010204BE
:1037000000404040404000000102040000205454AA
:103710005478007F484444380038444444200038FA
:103720004444487F00385454541800087E0901026C
:103730000018A4A4A47C007F080404780000447D41
:103740004000004080847D00007F1028440000007D
:10375000417F4000007C04180478007C0804047851
:1037600000384444443800FC24242418001824243D
:1037700018FC007C08040408004854545420000439
:103780003F444020003C4040207C001C2040201C46
:10379000003C4030403C004428102844001CA0A0BD
:1037A000A07C004464544C441414141414140000F9
:1037B000000000000000000000000000FC0000000D
:1037C000000002000000000C020C020000000000DB
:1037D000000090D0BCD0BC9000030003000018246F
:1037E000FE448C000302070201001824D8B04C806C
:1037F000000300010201C038E438E00001020201C8
:1038000002020806000000000000000000000000A6
:1038100000F80402000000010204000204F80000A5
:103820000004020100009060F860900000000100B8
:1038300000002020FC20200000000100000000000B
:1038400000000000080600000000202020202000CA
:103850000000000000000000000000000002000066
:1038600000000080601C0200040300000000F80457
:103870000404F8000102020201000008FC0000003C
:10388000000203020000188444241800030202020C
:10389000020008042424D80001020202010040B002
:1038A00088FC80000000000302003C242424C400A3
:1038B000010202020100F824242CC00001020202CD
:1038C00001000C04E41C0400000003000000D824E4
:1038D0002424D80001020202010038444444F800C4
:1038E00000030202010000001000000000000200BE
:1038F0000000000020000000000006000000002082
:103900005088040200000000010290909090900006
:1039100000000000000000020488502000020100A6
:1039200000001804C4241800000002000000F8047D
:10393000E494F80001020202020000E09CF0800022
:1039400002030000030204FC2424D8000203020244
:103950000100F80404040C0001020202010004FC4E
:103960000404F80002030202010004FC24740C00A9
:1039700002030202030004FC24740C000203020090
:103980000000F0080444CC4000010202010004FCE5
:103990002020FC040203000003020404FC040400D1
:1039A000020203020200000404FC040406040403EF
:1039B000000004FC24D00C0402030200030204FCF7
:1039C00004000000020302020203FC3CC03CFC00B5
:1039D00003000300030004FC30C4FC0402030200E3
:1039E0000300F8040404F80001020202010004FCD0
:1039F00024241800020302000000F8848404F80064
:103A000001020207050004FC24649800020302007E
:103A10000302182424448C000302020201000C0457
:103A2000FC040C0000020302000004FC0000FC0483
:103A3000000102020100047C80E01C04000003007D
:103A400000001CE03CE01C00000300030000049C9C
:103A5000609C0400020300030200041CE01C04003C
:103A60000002030200000C84641C04000203020232
:103A700003000000FE020200000007040400000E24
:103A800030C00000000000010200000202FE000041
:103A9000000404070000000402040000000000000D
:103AA00000000000000000000808080808080000E6
:103AB000020000000000000000000040A0A0C000C4
:103AC00000010202030204FC2020C00000030202E5
:103AD000010000C02020600000010202020000C0BE
:103AE0002024FC0000010202030200C0A0A0C000CC
:103AF0000001020202000020F82424040002030254
:103B000002000040A0A0602000070A0A0A0404FC8A
:103B10002020C0000203020003020020E400000095
:103B2000000203020000000020E40000080808076B
:103B3000000004FC80E020200203020003020404D1
:103B4000FC000000020203020200E020E020C000AE
:103B500003000300030020E02020C0000203020055
:103B6000030200C02020C00000010202010020E08A
:103B70002020C000080F0A02010000C02020E00041
:103B80000001020A0F0820E040202000020302008A
:103B900000000060A0A0200000020202030000203C
:103BA000F820000000000102020020E00020E000F8
:103BB00000010202030220E02080602000000301D7
:103BC00000006080E08060000003000300002060CF
:103BD0008060200002030003020020E020806020BB
:103BE0000808070100000020A06020000002030276
:103BF0000200000020DE02000000000704000000B8
:103C000000FF00000000000F00000002DE200000A6
:103C1000000407000000020102040402000000008A
:103C20000000000000000000000000000000000094
:103C30000000000000F80000000000000033300029
:103C4000000000100C06100C060000000000000030
:103C5000000040C07840C0784000043F04043F04A6
:103C60000400007088FC08300000001820FF211EAE
:103C70000000F008F000E018000000211C031E21E5
:103C80001E0000F00888700000001E212324192760
:103C9000211010160E0000000000000000000000BF
:103CA0000000000000E018040200000000071820D7
:103CB000400000020418E000000000402018070047
:103CC0000000404080F0804040000202010F0102ED
:103CD0000200000000F0000000000101011F0101CE
:103CE0000100000000000000000080B07000000033
:103CF00000000000000000000000000101010101BF
:103D00000101000000000000000000303000000051
:103D10000000000000008060180400601806010028
:103D2000000000E010080810E000000F1020201034
:103D30000F00001010F8000000000020203F20209D
:103D40000000007008080888700000302824222134
:103D500030000030088888483000001820202011EA
:103D60000E000000C02010F8000000070424243FCB
:103D7000240000F808888808080000192120201174
:103D80000E0000E0108888180000000F112020119C
:103D90000E0000380808C83808000000003F000086
:103DA00000000070880808887000001C2221212271
:103DB0001C0000E010080810E00000003122221171
:103DC0000F00000000C0C000000000000030300004
:103DD0000000000000800000000000008060000083
:103DE00000000000804020100800000102040810BC
:103DF00020004040404040404000040404040404CB
:103E00000400000810204080000000201008040278
:103E10000100007048080808F0000000003036017A
:103E20000000C030C828E810E00007182724231439
:103E30000B000000C038E0000000203C23020227F5
:103E4000382008F8888888700000203F2020201142
:103E50000E00C0300808080838000718202020107D
:103E6000080008F808080810E000203F2020201073
:103E70000F0008F88888E8081000203F2020232041
:103E8000180008F88888E8081000203F2000030088
:103E90000000C03008080838000007182020221E43
:103EA000020008F808000008F808203F210101215D
:103EB0003F20000808F8080800000020203F2020CC
:103EC000000000000808F8080800C08080807F001B
:103ED000000008F888C028180800203F2001263874
:103EE000200008F8080000000000203F20202020CB
:103EF000300008F8F800F8F80800203F003F003FC5
:103F0000200008F830C00008F808203F20000718FB
:103F10003F00E01008080810E0000F1020202010DB
:103F20000F0008F808080808F000203F21010101EF
:103F30000000E01008080810E0000F182424385092
:103F40004F0008F8888888887000203F2000030C04
:103F5000302000708808080838000038202121220D
:103F60001C00180808F8080818000000203F20006E
:103F7000000008F808000008F808001F2020202092
:103F80001F000878880000C83808000007380E01B4
:103F90000000F80800F80008F800033C0700073CA0
:103FA0000300081868808068180820302C03032C50
:103FB00030200838C800C83808000000203F200022
:103FC000000010080808C8380800203826212020E2
:103FD0001800000000FE020202000000007F4040C6
:103FE0004000000C30C00000000000000001063856
:103FF000C00000020202FE000000004040407F00BE
:1040000000000000040202020400000000000000A2
:1040100000000000000000000000808080808080A0
:104020008080000202040000000000000000000088
:1040300000000000808080800000001924222222DD
:104040003F2008F8008080000000003F1120201170
:104050000E000000008080800000000E1120202053
:104060001100000000808088F800000E1120201050
:104070003F200000808080800000001F222222223A
:104080001300008080F0888888180020203F2020BE
:1040900000000000808080808000006B94949493E6
:1040A000600008F8008080800000203F2100002090
:1040B0003F2000809898000000000020203F202032
:1040C0000000000000809898000000C08080807F81
:1040D000000008F8000080808000203F24022D307E
:1040E0002000000808F8000000000020203F2020E9
:1040F00000008080808080808000203F20003F2062
:10410000003F8080008080800000203F2100002050
:104110003F200000808080800000001F20202020A1
:104120001F00808000808000000080FFA1202011FF
:104130000E000000008080808000000E112020A072
:10414000FF80808080008080800020203F21200030
:10415000010000008080808080000033242424241B
:104160001900008080E0808000000000001F2020F7
:1041700000008080000000808000001F20202010B0
:104180003F20808080000080808000010E30080683
:10419000010080800080008080800F300C030C3094
:1041A0000F0000808000808080000020312E0E31C2
:1041B0002000808080000080808080818E701806C2
:1041C000010000808080808080000021302C22212E
:1041D000300000000000807C020200000000003F70
:1041E000404000000000FF00000000000000FF0051
:1041F00000000002027C800000000040403F000000
:10420000000000060101020204040000000000009A
:10421000000000000000000000000000000000009E
:10422000000000000000000000000000000000008E
:104230000000000000000000000000F0F0F00000AE
:1042400000000000000000017F01000000000000ED
:104250000000001C1C1C0000000000008060301CDE
:104260008C60301C0C00000000000000000000000A
:10427000000000000000000000000000000000003E
:1042800000E00000000000E000000086E69F868657
:104290008686E69F860000011F01010101011F01C2
:1042A0000100000080C06020F820E0C00000000095
:1042B00003070C18FF70E18100000000070F1010C9
:1042C0007F100F0700008060206080000000E02069
:1042D00000000F3020309F70DC371030C00000002D
:1042E000100E03000718101807000000C02020E07F
:1042F000C0000000000080E01F38E88703C43C04D1
:104300000000070F1810100B070D10100800008098
:104310008C4C38000000000000000000000000008D
:10432000000000000000000000000000000000008D
:10433000000000000000000080E0300804000000E1
:10434000000000FEFF01000000000000000000006F
:10435000030F1820400000040830E0800000000037
:1043600000000000000001FFFE000000000000400F
:1043700020180F03000000000000000000000000F3
:10438000C00000000000004266663C18FF183C6652
:104390006642000000000000030000000000000072
:1043A000000000008000000000000010101010103D
:1043B000FF101010101000000000000003000000AB
:1043C00000000000000000000000000000000000ED
:1043D0000000000000000000000000808C4C38004D
:1043E00000000000000000000000000000000000CD
:1043F000000000101010101010101010100000001D
:1044000000000000000000000000000000000000AC
:10441000000000000000000000000000000000009C
:10442000000000001C1C1C00000000000000000038
:10443000000000000000E0380C0000000000807068
:104440001C03000000000060380E010000000000A6
:104450000000000080C060202060C080000000FEDE
:10446000FF010000000001FFFE000001070E181010
:1044700010180E0701000000808080C0E0000000DE
:1044800000000000000000FFFF000000000000002E
:104490001010101F1F10101000000080402020205E
:1044A0002060C080000000030300804020381F0708
:1044B0000000001C1A1918181818181F0000008096
:1044C000C020202060C08000000000030300101006
:1044D000182FE780000000070F10101010180F07AA
:1044E0000000000000000000C0E0F000000000C07C
:1044F000B088868180FFFF808000000000000010EF
:10450000101F1F1010000000E060606060606060BD
:10451000000000003F1008080818F0E00000000745
:104520000B101010101C0F030000000080C0402072
:104530002020E0C0000000FCFF211008080818F04F
:10454000E0000001070C18101010080F0300000015
:10455000C0E06060606060E0600000000300000098
:10456000E0180700000000000000001F1F0000000E
:1045700000000080C0602020202060C080000087F4
:10458000EF2C1818303068CF830000070F08101088
:104590001010180F07000000C0C020202020C0808D
:1045A0000000001F3F604040402010FFFE00000060
:1045B0000C1C101010080F03000000000000000089
:1045C00000000000000000000000000E0E0E0000C1
:1045D000000000000000001C1C1C00000000000087
:1045E0000000000000000000000000000000000CBF
:1045F0000C0000000000000000000058380000001F
:1046000000000000000000000080402010000000BA
:10461000102844820100000000000000000000009B
:10462000010204081000000000000000000000006B
:104630000000008484848484848484848400000052
:10464000000000000000000000000000102040807A
:10465000000000000000000000000000018244286B
:10466000100000001008040201000000000000C05B
:1046700020201010101030E0C0000003030000F0F4
:1046800010080C070300000000001C1C1C000000A8
:104690000000000000C0406020202040C00000FC5E
:1046A000FF01F00E03C1FE03807F0001070E081119
:1046B0001110110904020000000080E0E000000079
:1046C00000000000807C4340477FF8800000101805
:1046D0001F1000000000131F1C1020E0E02020200D
:1046E0002060C080000000FFFF10101010182FE79E
:1046F0008000101F1F1010101010180F070000006E
:1047000080C0402020202060E00000FCFF0100006D
:104710000000000001000001070E1810101008042E
:10472000030020E0E02020202040C080000000FFA7
:10473000FF000000000001FFFE00101F1F101010FE
:1047400018080E07010020E0E02020202020206033
:10475000800000FFFF101010107C00000000101FF0
:104760001F10101010101018060020E0E02020206C
:1047700020206060800000FFFF101010107C0000FF
:104780000100101F1F1000000000000000000000CA
:1047900080C06020202040E0000000FCFF010000FD
:1047A0004040C0C140400001070E181010100F0F0C
:1047B000000020E0E0200000000020E0E02000FFFA
:1047C000FF101010101010FFFF00101F1F1000002E
:1047D0000000101F1F100000202020E0E0202020FB
:1047E00000000000000000FFFF00000000000000CB
:1047F0001010101F1F1010100000000000002020DB
:1048000020E0E020202000000000000000FFFF006A
:1048100000000060E0808080C07F3F00000020E05A
:10482000E020000020A06020200000FFFF30187C66
:10483000E3C000000000101F1F10000001131F1C28
:10484000181020E0E020000000000000000000FF41
:10485000FF000000000000000000101F1F101010DB
:1048600010101018060020E0E0E000000000E0E07A
:10487000E02000FF013FFEC0E01E01FFFF00101F0F
:104880001000031F0300101F1F1020E0E0C00000F5
:1048900000000020E02000FF0003071C78E08000FB
:1048A000FF00101F100000000000030F1F00000099
:1048B00080C060202060C080000000FEFF0100007A
:1048C000000000FFFE000001070E181010180C0772
:1048D000010020E0E0202020202060C0800000FFB8
:1048E000FF2020202020301F0F00101F1F1000006D
:1048F000000000000000000080C060202060C08038
:10490000000000FEFF010000000000FFFE000001AB
:10491000070E1111133C7C67210020E0E0202020CD
:10492000202060C0800000FFFF101030F0D0080F82
:104930000700101F1F10000000030F1C1010008044
:10494000C060202020204040E00000070F0C181815
:10495000303060E08100001F0C0810101010180F9C
:1049600007008060202020E0E020202060800100FF
:10497000000000FFFF000000000100000000101F09
:104980001F100000000020E0E020000000000020D8
:10499000E02000FFFF00000000000000FF00000713
:1049A0000F1810101010100807002060E0E0200021
:1049B000000020E060200000077FF88000807C037A
:1049C000000000000000071F1C070000000020E09E
:1049D000E02000E0E0200020E0200007FFF8E01FDA
:1049E000FFFCE01F00000000031F0300011F030085
:1049F0000000002060E0A0000020E0602000000037
:104A000000038F7CF8C6010000000010181E130080
:104A100001171F1810002060E0E02000000020E0D7
:104A20006020000001073EF8E018070000000000C9
:104A30000010101F1F1010000000008060202020B8
:104A400020A0E0E0200000000000C0F03E0F0300C6
:104A5000000000101C1F1710101010180600000096
:104A6000000000FC0404040404000000000000FF37
:104A700000000000000000000000007F40404040B7
:104A80004000000010E000000000000000000000F6
:104A90000000031C60800000000000000000000017
:104AA00000030C70800000000404040404FC0000F7
:104AB000000000000000000000FF000000000000F7
:104AC00040404040407F0000000000000010080C03
:104AD000040C0810000000000000000000000000AE
:104AE00000000000000000000000000000000000C6
:104AF00000000000000000000000000000000000B6
:104B000000000000000080808080808080808080A5
:104B1000808000000004040808000000000000007D
:104B20000000000000000000000000000000000085
:104B30000000000000000000000000000000000075
:104B40000000000098D844642424FCF80000000F02
:104B50001F18101010081F1F10180020E0F0000090
:104B60000000000000000000FFFF180804040CF81B
:104B7000F00000001F0F18101010180F03000000A5
:104B80000000000000000000000000E0F81804042D
:104B9000043C3800000000030F0C10101010080631
:104BA00000000000000000000020E0F0000000E035
:104BB000F81C04040408FFFF000000030F18101085
:104BC00010081F0F08000000000000000000000097
:104BD00000000000E0F8484444444C7870000000B5
:104BE000030F0C181010100804000000000080C013
:104BF000602020E0C00000040404FFFF040404045B
:104C00000000000010101F1F101010000000000016
:104C100000000000000000000000000070F88C049C
:104C2000048CF874040C007076CF8D8D8D89C87853
:104C300070000020E0F00000000000000000000014
:104C4000FFFF08040404FCF8000000101F1F100000
:104C500000101F1F10000000000000606000000036
:104C600000000000040404FCFC0000000000000040
:104C70001010101F1F101010000000000000000096
:104C800000606000000000000000040404FCFC0060
:104C900000000000C0C08080C07F3F0000000020F6
:104CA000E0F000000000000000000000FFFF80C0F6
:104CB000F41C0404000000101F1F1100031F1C102F
:104CC00010000000202020E0F000000000000000A4
:104CD000000000FFFF000000000000001010101F87
:104CE0001F10101000000000000000000000000075
:104CF000000004FCFC0804FCFC0804FCFC00101F81
:104D00001F10001F1F10001F1F10000000000000D8
:104D10000000000000000004FCFC08080404FCF88B
:104D2000000000101F1F100000101F1F10000000C7
:104D30000000000000000000000000E0F0180C047B
:104D4000040C18F0E00000030F0C101010100C0FF2
:104D5000030000000000000000000000000000044C
:104D6000FCFC080404040CF8F0000080FFFF8890AD
:104D700010101C0F030000000000000000000000E5
:104D8000000000E0F81C04040408F8FC0000000324
:104D90000F1810109088FFFF800000000000000036
:104DA000000000000000040404FCFC100804040CD3
:104DB0000C001010101F1F10101000000000000049
:104DC0000000000000000000000000003078CCC4AB
:104DD0008484840C1C0000001E1810101011190F80
:104DE00006000000000000C00000000000000004F9
:104DF0000404FFFF040404000000000000000F1F73
:104E00001010100C00000000000000000000000066
:104E100000000004FCFE00000004FCFE0000000096
:104E20000F1F181010081F0F0800000000000000DE
:104E300000000000000000040C3CFCC40000C43C66
:104E40000C0400000000010F1E0E01000000000015
:104E500000000000000000000000043CFCC400E46E
:104E60007CFC84807C040000071F070000071F07EC
:104E7000000000000000000000000000000000042E
:104E8000041C7CE4C0341C0404000010101C160137
:104E9000131F1C181000000000000000000000009C
:104EA000000000040C3CFCC400C43C0404000000EE
:104EB000C080C1370E0100000000000000000000AB
:104EC00000000000000000001C0404C4F47C1C046A
:104ED00000000000101C1F17111010180E00000019
:104EE0000000000000F80C040000000000000010AA
:104EF00028EF00000000000000000000003F6040BC
:104F00000000000000000000FF00000000000000A2
:104F100000000000FF000000000000000000000092
:104F2000FF00000000000000040CF800000000007A
:104F3000000000000000EF2810000000000000004A
:104F400040603F000000000000000018060202045C
:104F500008102020300800000000000000000000C1
:104F600000000000000000000000000000003031E0
:104F70003233343536373839414243444546403080
:104F80005800303132333435363738396162636432
:104F90006566403078000400000800000000000052
:104FA0000002000100001000C84F000800000020AF
:104FB0002400000028010008EC4F00082400002015
:104FC000240E000044010008000000000000000062
:104FD00000000000010000001000000000000000C0
:0C4FE00000127A0000000000FFFFFFFF3D
:04000005080000ED02
:00000001FF
